{
  "contractName": "Auction",
  "abi": [
    {
      "inputs": [
        {
          "internalType": "address",
          "name": "usdcContractAddress",
          "type": "address"
        }
      ],
      "stateMutability": "nonpayable",
      "type": "constructor"
    },
    {
      "anonymous": false,
      "inputs": [
        {
          "indexed": false,
          "internalType": "address",
          "name": "creatorAddress",
          "type": "address"
        },
        {
          "indexed": false,
          "internalType": "string",
          "name": "matchId",
          "type": "string"
        },
        {
          "indexed": false,
          "internalType": "uint96",
          "name": "openBlock",
          "type": "uint96"
        },
        {
          "indexed": false,
          "internalType": "uint96",
          "name": "expiryBlock",
          "type": "uint96"
        },
        {
          "indexed": false,
          "internalType": "uint256",
          "name": "minBid",
          "type": "uint256"
        },
        {
          "indexed": false,
          "internalType": "uint96",
          "name": "increment",
          "type": "uint96"
        },
        {
          "indexed": false,
          "internalType": "address[]",
          "name": "contracts",
          "type": "address[]"
        },
        {
          "indexed": false,
          "internalType": "uint256[]",
          "name": "tokenIds",
          "type": "uint256[]"
        }
      ],
      "name": "CreteAuctionEvent",
      "type": "event"
    },
    {
      "anonymous": false,
      "inputs": [
        {
          "indexed": false,
          "internalType": "string",
          "name": "matchId",
          "type": "string"
        },
        {
          "indexed": false,
          "internalType": "address",
          "name": "contractAddress",
          "type": "address"
        },
        {
          "indexed": false,
          "internalType": "uint256",
          "name": "tokenId",
          "type": "uint256"
        },
        {
          "indexed": false,
          "internalType": "address",
          "name": "winner",
          "type": "address"
        }
      ],
      "name": "NftWithdrawedEvent",
      "type": "event"
    },
    {
      "anonymous": false,
      "inputs": [
        {
          "indexed": false,
          "internalType": "string",
          "name": "matchId",
          "type": "string"
        },
        {
          "indexed": false,
          "internalType": "address",
          "name": "contractAddress",
          "type": "address"
        },
        {
          "indexed": false,
          "internalType": "uint256",
          "name": "tokenId",
          "type": "uint256"
        },
        {
          "indexed": false,
          "internalType": "uint256",
          "name": "bid",
          "type": "uint256"
        },
        {
          "indexed": false,
          "internalType": "uint96",
          "name": "expiryBlock",
          "type": "uint96"
        }
      ],
      "name": "PlayerBidEvent",
      "type": "event"
    },
    {
      "inputs": [],
      "name": "USDC_ADDRESS",
      "outputs": [
        {
          "internalType": "address",
          "name": "",
          "type": "address"
        }
      ],
      "stateMutability": "view",
      "type": "function"
    },
    {
      "inputs": [
        {
          "internalType": "string",
          "name": "",
          "type": "string"
        },
        {
          "internalType": "uint256",
          "name": "",
          "type": "uint256"
        }
      ],
      "name": "matchResults",
      "outputs": [
        {
          "internalType": "address",
          "name": "contractAddress",
          "type": "address"
        },
        {
          "internalType": "uint256",
          "name": "tokenId",
          "type": "uint256"
        },
        {
          "internalType": "address",
          "name": "topBidder",
          "type": "address"
        },
        {
          "internalType": "uint256",
          "name": "standingBid",
          "type": "uint256"
        }
      ],
      "stateMutability": "view",
      "type": "function"
    },
    {
      "inputs": [
        {
          "internalType": "string",
          "name": "",
          "type": "string"
        }
      ],
      "name": "matches",
      "outputs": [
        {
          "internalType": "address",
          "name": "creatorAddress",
          "type": "address"
        },
        {
          "internalType": "uint96",
          "name": "minIncrement",
          "type": "uint96"
        },
        {
          "internalType": "uint96",
          "name": "openBlock",
          "type": "uint96"
        },
        {
          "internalType": "uint96",
          "name": "expiryBlock",
          "type": "uint96"
        },
        {
          "internalType": "uint64",
          "name": "expiryExtension",
          "type": "uint64"
        },
        {
          "internalType": "uint256",
          "name": "minBid",
          "type": "uint256"
        }
      ],
      "stateMutability": "view",
      "type": "function"
    },
    {
      "inputs": [
        {
          "internalType": "string",
          "name": "matchId",
          "type": "string"
        },
        {
          "internalType": "uint96",
          "name": "openBlock",
          "type": "uint96"
        },
        {
          "internalType": "uint96",
          "name": "expiryBlock",
          "type": "uint96"
        },
        {
          "internalType": "uint64",
          "name": "expiryExtension",
          "type": "uint64"
        },
        {
          "internalType": "uint96",
          "name": "minIncrement",
          "type": "uint96"
        },
        {
          "internalType": "uint256",
          "name": "minBid",
          "type": "uint256"
        },
        {
          "internalType": "address[]",
          "name": "contracts",
          "type": "address[]"
        },
        {
          "internalType": "uint256[]",
          "name": "tokenIds",
          "type": "uint256[]"
        }
      ],
      "name": "createAuction",
      "outputs": [],
      "stateMutability": "nonpayable",
      "type": "function"
    },
    {
      "inputs": [
        {
          "internalType": "string",
          "name": "matchId",
          "type": "string"
        },
        {
          "internalType": "uint256",
          "name": "tokenIndex",
          "type": "uint256"
        },
        {
          "internalType": "uint256",
          "name": "amount",
          "type": "uint256"
        }
      ],
      "name": "player_bid",
      "outputs": [],
      "stateMutability": "nonpayable",
      "type": "function"
    },
    {
      "inputs": [
        {
          "internalType": "string",
          "name": "matchId",
          "type": "string"
        },
        {
          "internalType": "uint256",
          "name": "tokenIndex",
          "type": "uint256"
        }
      ],
      "name": "player_withdraw_bid",
      "outputs": [],
      "stateMutability": "nonpayable",
      "type": "function"
    },
    {
      "inputs": [
        {
          "internalType": "string",
          "name": "matchId",
          "type": "string"
        },
        {
          "internalType": "uint256",
          "name": "tokenIndex",
          "type": "uint256"
        },
        {
          "internalType": "address",
          "name": "recipientAddress",
          "type": "address"
        }
      ],
      "name": "player_withdraw_nft",
      "outputs": [],
      "stateMutability": "nonpayable",
      "type": "function"
    },
    {
      "inputs": [
        {
          "internalType": "string",
          "name": "matchId",
          "type": "string"
        }
      ],
      "name": "creator_withdraw_nft_batch",
      "outputs": [],
      "stateMutability": "nonpayable",
      "type": "function"
    },
    {
      "inputs": [
        {
          "internalType": "string",
          "name": "matchId",
          "type": "string"
        },
        {
          "internalType": "uint256",
          "name": "tokenIndex",
          "type": "uint256"
        }
      ],
      "name": "creator_withdraw_nft",
      "outputs": [],
      "stateMutability": "nonpayable",
      "type": "function"
    },
    {
      "inputs": [],
      "name": "functioncreator_withdraw_profit",
      "outputs": [],
      "stateMutability": "nonpayable",
      "type": "function"
    }
  ],
  "bytecode": "0x60806040523480156200001157600080fd5b50604051620043023803806200430283398181016040528101906200003791906200009e565b600160008190555080600560006101000a81548173ffffffffffffffffffffffffffffffffffffffff021916908373ffffffffffffffffffffffffffffffffffffffff1602179055505062000118565b6000815190506200009881620000fe565b92915050565b600060208284031215620000b157600080fd5b6000620000c18482850162000087565b91505092915050565b6000620000d782620000de565b9050919050565b600073ffffffffffffffffffffffffffffffffffffffff82169050919050565b6200010981620000ca565b81146200011557600080fd5b50565b6141da80620001286000396000f3fe608060405234801561001057600080fd5b506004361061009e5760003560e01c8063458110a311610066578063458110a314610136578063528f0f5614610152578063bb09d9b71461016e578063df4a252c1461018c578063e3c6623d146101a85761009e565b806303e03f5a146100a35780630c97531b146100ad57806328af5a5b146100c957806332ac752b146100e55780633ca497a91461011a575b600080fd5b6100ab6101db565b005b6100c760048036038101906100c29190612c14565b6102f7565b005b6100e360048036038101906100de9190612d77565b6107b9565b005b6100ff60048036038101906100fa9190612c14565b610fbe565b604051610111969594939291906138ce565b60405180910390f35b610134600480360381019061012f9190612ca9565b61108c565b005b610150600480360381019061014b9190612d10565b6116b0565b005b61016c60048036038101906101679190612c55565b611f53565b005b6101766122c9565b604051610183919061377b565b60405180910390f35b6101a660048036038101906101a19190612c55565b6122ef565b005b6101c260048036038101906101bd9190612c55565b6125cf565b6040516101d29493929190613889565b60405180910390f35b6000600460003373ffffffffffffffffffffffffffffffffffffffff1673ffffffffffffffffffffffffffffffffffffffff16815260200190815260200160002054905060008111610262576040517f08c379a000000000000000000000000000000000000000000000000000000000815260040161025990613b37565b60405180910390fd5b6000600460003373ffffffffffffffffffffffffffffffffffffffff1673ffffffffffffffffffffffffffffffffffffffff168152602001908152602001600020819055506102f43382600560009054906101000a900473ffffffffffffffffffffffffffffffffffffffff1673ffffffffffffffffffffffffffffffffffffffff166126729092919063ffffffff16565b50565b80600073ffffffffffffffffffffffffffffffffffffffff16600182604051610320919061373c565b908152602001604051809103902060000160009054906101000a900473ffffffffffffffffffffffffffffffffffffffff1673ffffffffffffffffffffffffffffffffffffffff1614156103a9576040517f08c379a00000000000000000000000000000000000000000000000000000000081526004016103a090613a57565b60405180910390fd5b436001826040516103ba919061373c565b9081526020016040518091039020600101600c9054906101000a90046bffffffffffffffffffffffff166bffffffffffffffffffffffff1610610432576040517f08c379a000000000000000000000000000000000000000000000000000000000815260040161042990613a77565b60405180910390fd5b813373ffffffffffffffffffffffffffffffffffffffff1660018260405161045a919061373c565b908152602001604051809103902060000160009054906101000a900473ffffffffffffffffffffffffffffffffffffffff1673ffffffffffffffffffffffffffffffffffffffff16146104e2576040517f08c379a00000000000000000000000000000000000000000000000000000000081526004016104d990613bf7565b60405180910390fd5b600033905060006001856040516104f9919061373c565b9081526020016040518091039020600201549050600060028660405161051f919061373c565b908152602001604051809103902080549050905060005b818110156107b0576000600288604051610550919061373c565b90815260200160405180910390208281548110610596577f4e487b7100000000000000000000000000000000000000000000000000000000600052603260045260246000fd5b90600052602060002090600402016040518060800160405290816000820160009054906101000a900473ffffffffffffffffffffffffffffffffffffffff1673ffffffffffffffffffffffffffffffffffffffff1673ffffffffffffffffffffffffffffffffffffffff168152602001600182015481526020016002820160009054906101000a900473ffffffffffffffffffffffffffffffffffffffff1673ffffffffffffffffffffffffffffffffffffffff1673ffffffffffffffffffffffffffffffffffffffff1681526020016003820154815250509050600073ffffffffffffffffffffffffffffffffffffffff16816040015173ffffffffffffffffffffffffffffffffffffffff161480156106b45750838160600151145b1561079e5760006002896040516106cb919061373c565b90815260200160405180910390208381548110610711577f4e487b7100000000000000000000000000000000000000000000000000000000600052603260045260246000fd5b906000526020600020906004020160030181905550806000015173ffffffffffffffffffffffffffffffffffffffff166342842e0e308784602001516040518463ffffffff1660e01b815260040161076b93929190613796565b600060405180830381600087803b15801561078557600080fd5b505af1158015610799573d6000803e3d6000fd5b505050505b50806107a990614040565b9050610536565b50505050505050565b600260005414156107ff576040517f08c379a00000000000000000000000000000000000000000000000000000000081526004016107f690613c57565b60405180910390fd5b6002600081905550600073ffffffffffffffffffffffffffffffffffffffff1660018960405161082f919061373c565b908152602001604051809103902060000160009054906101000a900473ffffffffffffffffffffffffffffffffffffffff1673ffffffffffffffffffffffffffffffffffffffff16146108b7576040517f08c379a00000000000000000000000000000000000000000000000000000000081526004016108ae90613b77565b60405180910390fd5b866bffffffffffffffffffffffff16866bffffffffffffffffffffffff161180156108ef575043876bffffffffffffffffffffffff16115b61092e576040517f08c379a000000000000000000000000000000000000000000000000000000000815260040161092590613ab7565b60405180910390fd5b6002600861093c9190613ec8565b87876109489190613f56565b6bffffffffffffffffffffffff1611610996576040517f08c379a000000000000000000000000000000000000000000000000000000000815260040161098d90613ad7565b60405180910390fd5b6020825111156109db576040517f08c379a00000000000000000000000000000000000000000000000000000000081526004016109d290613a17565b60405180910390fd5b8051825114610a1f576040517f08c379a0000000000000000000000000000000000000000000000000000000008152600401610a1690613c17565b60405180910390fd5b60008311610a62576040517f08c379a0000000000000000000000000000000000000000000000000000000008152600401610a5990613b17565b60405180910390fd5b6064846bffffffffffffffffffffffff16108015610aa5575060006064856bffffffffffffffffffffffff1685610a999190613ec8565b610aa39190613e97565b115b610ae4576040517f08c379a0000000000000000000000000000000000000000000000000000000008152600401610adb906139f7565b60405180910390fd5b60005b8251811015610da957828181518110610b29577f4e487b7100000000000000000000000000000000000000000000000000000000600052603260045260246000fd5b602002602001015173ffffffffffffffffffffffffffffffffffffffff166342842e0e3330858581518110610b87577f4e487b7100000000000000000000000000000000000000000000000000000000600052603260045260246000fd5b60200260200101516040518463ffffffff1660e01b8152600401610bad93929190613796565b600060405180830381600087803b158015610bc757600080fd5b505af1158015610bdb573d6000803e3d6000fd5b50505050600289604051610bef919061373c565b90815260200160405180910390206040518060800160405280858481518110610c41577f4e487b7100000000000000000000000000000000000000000000000000000000600052603260045260246000fd5b602002602001015173ffffffffffffffffffffffffffffffffffffffff168152602001848481518110610c9d577f4e487b7100000000000000000000000000000000000000000000000000000000600052603260045260246000fd5b60200260200101518152602001600073ffffffffffffffffffffffffffffffffffffffff16815260200186815250908060018154018082558091505060019003906000526020600020906004020160009091909190915060008201518160000160006101000a81548173ffffffffffffffffffffffffffffffffffffffff021916908373ffffffffffffffffffffffffffffffffffffffff1602179055506020820151816001015560408201518160020160006101000a81548173ffffffffffffffffffffffffffffffffffffffff021916908373ffffffffffffffffffffffffffffffffffffffff16021790555060608201518160030155505080610da290614040565b9050610ae7565b506040518060c001604052803373ffffffffffffffffffffffffffffffffffffffff168152602001856bffffffffffffffffffffffff168152602001886bffffffffffffffffffffffff168152602001876bffffffffffffffffffffffff1681526020018667ffffffffffffffff16815260200184815250600189604051610e31919061373c565b908152602001604051809103902060008201518160000160006101000a81548173ffffffffffffffffffffffffffffffffffffffff021916908373ffffffffffffffffffffffffffffffffffffffff16021790555060208201518160000160146101000a8154816bffffffffffffffffffffffff02191690836bffffffffffffffffffffffff16021790555060408201518160010160006101000a8154816bffffffffffffffffffffffff02191690836bffffffffffffffffffffffff160217905550606082015181600101600c6101000a8154816bffffffffffffffffffffffff02191690836bffffffffffffffffffffffff16021790555060808201518160010160186101000a81548167ffffffffffffffff021916908367ffffffffffffffff16021790555060a082015181600201559050507f6d1fbcb67a09f56f8b219d0c9c2b99c9da23a3817b8159de52dc69a0e670c7853389898987898888604051610fa49897969594939291906137cd565b60405180910390a160016000819055505050505050505050565b6001818051602081018201805184825260208301602085012081835280955050505050506000915090508060000160009054906101000a900473ffffffffffffffffffffffffffffffffffffffff16908060000160149054906101000a90046bffffffffffffffffffffffff16908060010160009054906101000a90046bffffffffffffffffffffffff169080600101600c9054906101000a90046bffffffffffffffffffffffff16908060010160189054906101000a900467ffffffffffffffff16908060020154905086565b82600073ffffffffffffffffffffffffffffffffffffffff166001826040516110b5919061373c565b908152602001604051809103902060000160009054906101000a900473ffffffffffffffffffffffffffffffffffffffff1673ffffffffffffffffffffffffffffffffffffffff16141561113e576040517f08c379a000000000000000000000000000000000000000000000000000000000815260040161113590613a57565b60405180910390fd5b4360018260405161114f919061373c565b9081526020016040518091039020600101600c9054906101000a90046bffffffffffffffffffffffff166bffffffffffffffffffffffff16106111c7576040517f08c379a00000000000000000000000000000000000000000000000000000000081526004016111be90613a77565b60405180910390fd5b6002846040516111d7919061373c565b908152602001604051809103902080549050831061122a576040517f08c379a000000000000000000000000000000000000000000000000000000000815260040161122190613a37565b60405180910390fd5b60003390506000600286604051611241919061373c565b90815260200160405180910390208581548110611287577f4e487b7100000000000000000000000000000000000000000000000000000000600052603260045260246000fd5b90600052602060002090600402016040518060800160405290816000820160009054906101000a900473ffffffffffffffffffffffffffffffffffffffff1673ffffffffffffffffffffffffffffffffffffffff1673ffffffffffffffffffffffffffffffffffffffff168152602001600182015481526020016002820160009054906101000a900473ffffffffffffffffffffffffffffffffffffffff1673ffffffffffffffffffffffffffffffffffffffff1673ffffffffffffffffffffffffffffffffffffffff16815260200160038201548152505090508173ffffffffffffffffffffffffffffffffffffffff16816040015173ffffffffffffffffffffffffffffffffffffffff16146113d4576040517f08c379a00000000000000000000000000000000000000000000000000000000081526004016113cb90613c37565b60405180910390fd5b60006002876040516113e6919061373c565b9081526020016040518091039020868154811061142c577f4e487b7100000000000000000000000000000000000000000000000000000000600052603260045260246000fd5b906000526020600020906004020160020160006101000a81548173ffffffffffffffffffffffffffffffffffffffff021916908373ffffffffffffffffffffffffffffffffffffffff16021790555060008686604051602001611490929190613753565b6040516020818303038152906040528051906020012090506000600360008573ffffffffffffffffffffffffffffffffffffffff1673ffffffffffffffffffffffffffffffffffffffff16815260200190815260200160002060008381526020019081526020016000205490506000600360008673ffffffffffffffffffffffffffffffffffffffff1673ffffffffffffffffffffffffffffffffffffffff168152602001908152602001600020600084815260200190815260200160002081905550806004600060018b604051611568919061373c565b908152602001604051809103902060000160009054906101000a900473ffffffffffffffffffffffffffffffffffffffff1673ffffffffffffffffffffffffffffffffffffffff1673ffffffffffffffffffffffffffffffffffffffff16815260200190815260200160002060008282546115e39190613dff565b92505081905550826000015173ffffffffffffffffffffffffffffffffffffffff166342842e0e308886602001516040518463ffffffff1660e01b815260040161162f93929190613796565b600060405180830381600087803b15801561164957600080fd5b505af115801561165d573d6000803e3d6000fd5b505050507f44523ddc61871a6f5c800b3e7b4e2abcd6ba4084f5a13323f9771b0aa10cc75788846000015185602001518760405161169e9493929190613951565b60405180910390a15050505050505050565b600260005414156116f6576040517f08c379a00000000000000000000000000000000000000000000000000000000081526004016116ed90613c57565b60405180910390fd5b600260008190555082600073ffffffffffffffffffffffffffffffffffffffff16600182604051611727919061373c565b908152602001604051809103902060000160009054906101000a900473ffffffffffffffffffffffffffffffffffffffff1673ffffffffffffffffffffffffffffffffffffffff1614156117b0576040517f08c379a00000000000000000000000000000000000000000000000000000000081526004016117a790613a57565b60405180910390fd5b60006001856040516117c2919061373c565b90815260200160405180910390206040518060c00160405290816000820160009054906101000a900473ffffffffffffffffffffffffffffffffffffffff1673ffffffffffffffffffffffffffffffffffffffff1673ffffffffffffffffffffffffffffffffffffffff1681526020016000820160149054906101000a90046bffffffffffffffffffffffff166bffffffffffffffffffffffff166bffffffffffffffffffffffff1681526020016001820160009054906101000a90046bffffffffffffffffffffffff166bffffffffffffffffffffffff166bffffffffffffffffffffffff16815260200160018201600c9054906101000a90046bffffffffffffffffffffffff166bffffffffffffffffffffffff166bffffffffffffffffffffffff1681526020016001820160189054906101000a900467ffffffffffffffff1667ffffffffffffffff1667ffffffffffffffff168152602001600282015481525050905060003390504382604001516bffffffffffffffffffffffff16108015611961575081606001516bffffffffffffffffffffffff164311155b6119a0576040517f08c379a000000000000000000000000000000000000000000000000000000000815260040161199790613bb7565b60405180910390fd5b6002866040516119b0919061373c565b9081526020016040518091039020805490508510611a03576040517f08c379a00000000000000000000000000000000000000000000000000000000081526004016119fa90613a37565b60405180910390fd5b6000600287604051611a15919061373c565b90815260200160405180910390208681548110611a5b577f4e487b7100000000000000000000000000000000000000000000000000000000600052603260045260246000fd5b9060005260206000209060040201600301549050806002611a7c9190613ec8565b85108015611a8957508085115b8015611acd5750606483602001516bffffffffffffffffffffffff168460a00151611ab49190613ec8565b611abe9190613e97565b8186611aca9190613f22565b10155b611b0c576040517f08c379a0000000000000000000000000000000000000000000000000000000008152600401611b0390613c77565b60405180910390fd5b84600288604051611b1d919061373c565b90815260200160405180910390208781548110611b63577f4e487b7100000000000000000000000000000000000000000000000000000000600052603260045260246000fd5b90600052602060002090600402016003018190555081600288604051611b89919061373c565b90815260200160405180910390208781548110611bcf577f4e487b7100000000000000000000000000000000000000000000000000000000600052603260045260246000fd5b906000526020600020906004020160020160006101000a81548173ffffffffffffffffffffffffffffffffffffffff021916908373ffffffffffffffffffffffffffffffffffffffff16021790555060084384606001516bffffffffffffffffffffffff16611c3e9190613f22565b1015611cde57826080015167ffffffffffffffff1683606001818151611c649190613e55565b9150906bffffffffffffffffffffffff1690816bffffffffffffffffffffffff16815250508260600151600188604051611c9e919061373c565b9081526020016040518091039020600101600c6101000a8154816bffffffffffffffffffffffff02191690836bffffffffffffffffffffffff1602179055505b60008787604051602001611cf3929190613753565b6040516020818303038152906040528051906020012090506000600360008573ffffffffffffffffffffffffffffffffffffffff1673ffffffffffffffffffffffffffffffffffffffff16815260200190815260200160002060008381526020019081526020016000205487611d699190613f22565b905086600360008673ffffffffffffffffffffffffffffffffffffffff1673ffffffffffffffffffffffffffffffffffffffff168152602001908152602001600020600084815260200190815260200160002081905550611e0f333083600560009054906101000a900473ffffffffffffffffffffffffffffffffffffffff1673ffffffffffffffffffffffffffffffffffffffff166126f8909392919063ffffffff16565b7f18fd97230ae5f6949392b9c1f01de56b7f025e5ce8085c22eb32ee8dad59e53c8960028b604051611e41919061373c565b90815260200160405180910390208a81548110611e87577f4e487b7100000000000000000000000000000000000000000000000000000000600052603260045260246000fd5b906000526020600020906004020160000160009054906101000a900473ffffffffffffffffffffffffffffffffffffffff1660028c604051611ec9919061373c565b90815260200160405180910390208b81548110611f0f577f4e487b7100000000000000000000000000000000000000000000000000000000600052603260045260246000fd5b9060005260206000209060040201600101548a8960600151604051611f3895949392919061399d565b60405180910390a15050505050506001600081905550505050565b813373ffffffffffffffffffffffffffffffffffffffff16600182604051611f7b919061373c565b908152602001604051809103902060000160009054906101000a900473ffffffffffffffffffffffffffffffffffffffff1673ffffffffffffffffffffffffffffffffffffffff1614612003576040517f08c379a0000000000000000000000000000000000000000000000000000000008152600401611ffa90613bf7565b60405180910390fd5b6000600184604051612015919061373c565b9081526020016040518091039020600201549050600060028560405161203b919061373c565b90815260200160405180910390208481548110612081577f4e487b7100000000000000000000000000000000000000000000000000000000600052603260045260246000fd5b90600052602060002090600402016040518060800160405290816000820160009054906101000a900473ffffffffffffffffffffffffffffffffffffffff1673ffffffffffffffffffffffffffffffffffffffff1673ffffffffffffffffffffffffffffffffffffffff168152602001600182015481526020016002820160009054906101000a900473ffffffffffffffffffffffffffffffffffffffff1673ffffffffffffffffffffffffffffffffffffffff1673ffffffffffffffffffffffffffffffffffffffff1681526020016003820154815250509050600073ffffffffffffffffffffffffffffffffffffffff16816040015173ffffffffffffffffffffffffffffffffffffffff1614801561219f5750818160600151145b6121de576040517f08c379a00000000000000000000000000000000000000000000000000000000081526004016121d590613b57565b60405180910390fd5b60006002866040516121f0919061373c565b90815260200160405180910390208581548110612236577f4e487b7100000000000000000000000000000000000000000000000000000000600052603260045260246000fd5b906000526020600020906004020160030181905550806000015173ffffffffffffffffffffffffffffffffffffffff166342842e0e303384602001516040518463ffffffff1660e01b815260040161229093929190613796565b600060405180830381600087803b1580156122aa57600080fd5b505af11580156122be573d6000803e3d6000fd5b505050505050505050565b600560009054906101000a900473ffffffffffffffffffffffffffffffffffffffff1681565b60026000541415612335576040517f08c379a000000000000000000000000000000000000000000000000000000000815260040161232c90613c57565b60405180910390fd5b600260008190555060028260405161234d919061373c565b90815260200160405180910390208054905081106123a0576040517f08c379a000000000000000000000000000000000000000000000000000000000815260040161239790613a37565b60405180910390fd5b3373ffffffffffffffffffffffffffffffffffffffff166002836040516123c7919061373c565b9081526020016040518091039020828154811061240d577f4e487b7100000000000000000000000000000000000000000000000000000000600052603260045260246000fd5b906000526020600020906004020160020160009054906101000a900473ffffffffffffffffffffffffffffffffffffffff1673ffffffffffffffffffffffffffffffffffffffff161415612496576040517f08c379a000000000000000000000000000000000000000000000000000000000815260040161248d90613a97565b60405180910390fd5b6000339050600083836040516020016124b0929190613753565b6040516020818303038152906040528051906020012090506000600360008473ffffffffffffffffffffffffffffffffffffffff1673ffffffffffffffffffffffffffffffffffffffff16815260200190815260200160002060008381526020019081526020016000205490506000600360008573ffffffffffffffffffffffffffffffffffffffff1673ffffffffffffffffffffffffffffffffffffffff1681526020019081526020016000206000848152602001908152602001600020819055506125c08382600560009054906101000a900473ffffffffffffffffffffffffffffffffffffffff1673ffffffffffffffffffffffffffffffffffffffff166126729092919063ffffffff16565b50505060016000819055505050565b600282805160208101820180518482526020830160208501208183528095505050505050818154811061260157600080fd5b9060005260206000209060040201600091509150508060000160009054906101000a900473ffffffffffffffffffffffffffffffffffffffff16908060010154908060020160009054906101000a900473ffffffffffffffffffffffffffffffffffffffff16908060030154905084565b6126f38363a9059cbb60e01b8484604051602401612691929190613860565b604051602081830303815290604052907bffffffffffffffffffffffffffffffffffffffffffffffffffffffff19166020820180517bffffffffffffffffffffffffffffffffffffffffffffffffffffffff8381831617835250505050612781565b505050565b61277b846323b872dd60e01b85858560405160240161271993929190613796565b604051602081830303815290604052907bffffffffffffffffffffffffffffffffffffffffffffffffffffffff19166020820180517bffffffffffffffffffffffffffffffffffffffffffffffffffffffff8381831617835250505050612781565b50505050565b60006127e3826040518060400160405280602081526020017f5361666545524332303a206c6f772d6c6576656c2063616c6c206661696c65648152508573ffffffffffffffffffffffffffffffffffffffff166128489092919063ffffffff16565b905060008151111561284357808060200190518101906128039190612beb565b612842576040517f08c379a000000000000000000000000000000000000000000000000000000000815260040161283990613bd7565b60405180910390fd5b5b505050565b60606128578484600085612860565b90509392505050565b6060824710156128a5576040517f08c379a000000000000000000000000000000000000000000000000000000000815260040161289c90613af7565b60405180910390fd5b6128ae85612974565b6128ed576040517f08c379a00000000000000000000000000000000000000000000000000000000081526004016128e490613b97565b60405180910390fd5b6000808673ffffffffffffffffffffffffffffffffffffffff1685876040516129169190613725565b60006040518083038185875af1925050503d8060008114612953576040519150601f19603f3d011682016040523d82523d6000602084013e612958565b606091505b5091509150612968828286612987565b92505050949350505050565b600080823b905060008111915050919050565b60608315612997578290506129e7565b6000835111156129aa5782518084602001fd5b816040517f08c379a00000000000000000000000000000000000000000000000000000000081526004016129de919061392f565b60405180910390fd5b9392505050565b6000612a016129fc84613cc8565b613c97565b90508083825260208201905082856020860282011115612a2057600080fd5b60005b85811015612a505781612a368882612b04565b845260208401935060208301925050600181019050612a23565b5050509392505050565b6000612a6d612a6884613cf4565b613c97565b90508083825260208201905082856020860282011115612a8c57600080fd5b60005b85811015612abc5781612aa28882612bac565b845260208401935060208301925050600181019050612a8f565b5050509392505050565b6000612ad9612ad484613d20565b613c97565b905082815260208101848484011115612af157600080fd5b612afc848285613ffe565b509392505050565b600081359050612b1381614131565b92915050565b600082601f830112612b2a57600080fd5b8135612b3a8482602086016129ee565b91505092915050565b600082601f830112612b5457600080fd5b8135612b64848260208601612a5a565b91505092915050565b600081519050612b7c81614148565b92915050565b600082601f830112612b9357600080fd5b8135612ba3848260208601612ac6565b91505092915050565b600081359050612bbb8161415f565b92915050565b600081359050612bd081614176565b92915050565b600081359050612be58161418d565b92915050565b600060208284031215612bfd57600080fd5b6000612c0b84828501612b6d565b91505092915050565b600060208284031215612c2657600080fd5b600082013567ffffffffffffffff811115612c4057600080fd5b612c4c84828501612b82565b91505092915050565b60008060408385031215612c6857600080fd5b600083013567ffffffffffffffff811115612c8257600080fd5b612c8e85828601612b82565b9250506020612c9f85828601612bac565b9150509250929050565b600080600060608486031215612cbe57600080fd5b600084013567ffffffffffffffff811115612cd857600080fd5b612ce486828701612b82565b9350506020612cf586828701612bac565b9250506040612d0686828701612b04565b9150509250925092565b600080600060608486031215612d2557600080fd5b600084013567ffffffffffffffff811115612d3f57600080fd5b612d4b86828701612b82565b9350506020612d5c86828701612bac565b9250506040612d6d86828701612bac565b9150509250925092565b600080600080600080600080610100898b031215612d9457600080fd5b600089013567ffffffffffffffff811115612dae57600080fd5b612dba8b828c01612b82565b9850506020612dcb8b828c01612bd6565b9750506040612ddc8b828c01612bd6565b9650506060612ded8b828c01612bc1565b9550506080612dfe8b828c01612bd6565b94505060a0612e0f8b828c01612bac565b93505060c089013567ffffffffffffffff811115612e2c57600080fd5b612e388b828c01612b19565b92505060e089013567ffffffffffffffff811115612e5557600080fd5b612e618b828c01612b43565b9150509295985092959890939650565b6000612e7d8383612ea1565b60208301905092915050565b6000612e9583836136d2565b60208301905092915050565b612eaa81613f8a565b82525050565b612eb981613f8a565b82525050565b6000612eca82613d70565b612ed48185613db6565b9350612edf83613d50565b8060005b83811015612f10578151612ef78882612e71565b9750612f0283613d9c565b925050600181019050612ee3565b5085935050505092915050565b6000612f2882613d7b565b612f328185613dc7565b9350612f3d83613d60565b8060005b83811015612f6e578151612f558882612e89565b9750612f6083613da9565b925050600181019050612f41565b5085935050505092915050565b6000612f8682613d86565b612f908185613dd8565b9350612fa081856020860161400d565b80840191505092915050565b6000612fb782613d91565b612fc18185613de3565b9350612fd181856020860161400d565b612fda81614120565b840191505092915050565b6000612ff082613d91565b612ffa8185613df4565b935061300a81856020860161400d565b80840191505092915050565b6000613023602283613de3565b91507f696e6372656d656e742073686f756c642062652067726561746572207468616e60008301527f20300000000000000000000000000000000000000000000000000000000000006020830152604082019050919050565b6000613089602f83613de3565b91507f6974656d20636f756e74206d757374206e6f7420657863656564204d41585f4960008301527f54454d5f5045525f41554354494f4e00000000000000000000000000000000006020830152604082019050919050565b60006130ef601883613de3565b91507f746f6b656e20696e646578206f7574206f662072616e676500000000000000006000830152602082019050919050565b600061312f600d83613de3565b91507f696e76616c6964206d61746368000000000000000000000000000000000000006000830152602082019050919050565b600061316f601583613de3565b91507f6d61746368206973206e6f742066696e697368656400000000000000000000006000830152602082019050919050565b60006131af601a83613de3565b91507f746f70206269646465722063616e6e6f742077697468647261770000000000006000830152602082019050919050565b60006131ef604583613de3565b91507f636f6e646974696f6e20657870697279426c6f636b203e206f70656e426c6f6360008301527f6b203e2063757272656e7420626c6f636b20636f756e74206e6f74207361746960208301527f73666965640000000000000000000000000000000000000000000000000000006040830152606082019050919050565b600061327b603783613de3565b91507f61756374696f6e2074696d65206d757374206265206d6f7265207468616e203260008301527f78204d494e5f48414c465f41554354494f4e5f54494d450000000000000000006020830152604082019050919050565b60006132e1602683613de3565b91507f416464726573733a20696e73756666696369656e742062616c616e636520666f60008301527f722063616c6c00000000000000000000000000000000000000000000000000006020830152604082019050919050565b6000613347602083613de3565b91507f6d696e206269642073686f756c642062652067726561746572207468616e20306000830152602082019050919050565b6000613387602683613de3565b91507f63726561746f722062616c616e6365206d75737420626520677265617465722060008301527f7468616e203000000000000000000000000000000000000000000000000000006020830152604082019050919050565b60006133ed602283613de3565b91507f746f6b656e206973206e6f7420617661696c61626c6520746f2077697468647260008301527f61770000000000000000000000000000000000000000000000000000000000006020830152604082019050919050565b6000613453601383613de3565b91507f6d617463684964206973206f63637570696564000000000000000000000000006000830152602082019050919050565b6000613493601d83613de3565b91507f416464726573733a2063616c6c20746f206e6f6e2d636f6e74726163740000006000830152602082019050919050565b60006134d3600e83613de3565b91507f6d617463682066696e69736865640000000000000000000000000000000000006000830152602082019050919050565b6000613513602a83613de3565b91507f5361666545524332303a204552433230206f7065726174696f6e20646964206e60008301527f6f742073756363656564000000000000000000000000000000000000000000006020830152604082019050919050565b6000613579601583613de3565b91507f63726561746f72206f6e6c792066756e6374696f6e00000000000000000000006000830152602082019050919050565b60006135b9603083613de3565b91507f636f6e74726163747320616e64206974656d20696473206d757374206861766560008301527f207468652073616d65206c656e677468000000000000000000000000000000006020830152604082019050919050565b600061361f601e83613de3565b91507f6e6f6e20746f70206269646465722063616e6e6f7420776974686472617700006000830152602082019050919050565b600061365f601f83613de3565b91507f5265656e7472616e637947756172643a207265656e7472616e742063616c6c006000830152602082019050919050565b600061369f601183613de3565b91507f696c6c6567616c20696e6372656d656e740000000000000000000000000000006000830152602082019050919050565b6136db81613fc8565b82525050565b6136ea81613fc8565b82525050565b6137016136fc82613fc8565b614089565b82525050565b61371081613fd2565b82525050565b61371f81613fe6565b82525050565b60006137318284612f7b565b915081905092915050565b60006137488284612fe5565b915081905092915050565b600061375f8285612fe5565b915061376b82846136f0565b6020820191508190509392505050565b60006020820190506137906000830184612eb0565b92915050565b60006060820190506137ab6000830186612eb0565b6137b86020830185612eb0565b6137c560408301846136e1565b949350505050565b6000610100820190506137e3600083018b612eb0565b81810360208301526137f5818a612fac565b90506138046040830189613716565b6138116060830188613716565b61381e60808301876136e1565b61382b60a0830186613716565b81810360c083015261383d8185612ebf565b905081810360e08301526138518184612f1d565b90509998505050505050505050565b60006040820190506138756000830185612eb0565b61388260208301846136e1565b9392505050565b600060808201905061389e6000830187612eb0565b6138ab60208301866136e1565b6138b86040830185612eb0565b6138c560608301846136e1565b95945050505050565b600060c0820190506138e36000830189612eb0565b6138f06020830188613716565b6138fd6040830187613716565b61390a6060830186613716565b6139176080830185613707565b61392460a08301846136e1565b979650505050505050565b600060208201905081810360008301526139498184612fac565b905092915050565b6000608082019050818103600083015261396b8187612fac565b905061397a6020830186612eb0565b61398760408301856136e1565b6139946060830184612eb0565b95945050505050565b600060a08201905081810360008301526139b78188612fac565b90506139c66020830187612eb0565b6139d360408301866136e1565b6139e060608301856136e1565b6139ed6080830184613716565b9695505050505050565b60006020820190508181036000830152613a1081613016565b9050919050565b60006020820190508181036000830152613a308161307c565b9050919050565b60006020820190508181036000830152613a50816130e2565b9050919050565b60006020820190508181036000830152613a7081613122565b9050919050565b60006020820190508181036000830152613a9081613162565b9050919050565b60006020820190508181036000830152613ab0816131a2565b9050919050565b60006020820190508181036000830152613ad0816131e2565b9050919050565b60006020820190508181036000830152613af08161326e565b9050919050565b60006020820190508181036000830152613b10816132d4565b9050919050565b60006020820190508181036000830152613b308161333a565b9050919050565b60006020820190508181036000830152613b508161337a565b9050919050565b60006020820190508181036000830152613b70816133e0565b9050919050565b60006020820190508181036000830152613b9081613446565b9050919050565b60006020820190508181036000830152613bb081613486565b9050919050565b60006020820190508181036000830152613bd0816134c6565b9050919050565b60006020820190508181036000830152613bf081613506565b9050919050565b60006020820190508181036000830152613c108161356c565b9050919050565b60006020820190508181036000830152613c30816135ac565b9050919050565b60006020820190508181036000830152613c5081613612565b9050919050565b60006020820190508181036000830152613c7081613652565b9050919050565b60006020820190508181036000830152613c9081613692565b9050919050565b6000604051905081810181811067ffffffffffffffff82111715613cbe57613cbd6140f1565b5b8060405250919050565b600067ffffffffffffffff821115613ce357613ce26140f1565b5b602082029050602081019050919050565b600067ffffffffffffffff821115613d0f57613d0e6140f1565b5b602082029050602081019050919050565b600067ffffffffffffffff821115613d3b57613d3a6140f1565b5b601f19601f8301169050602081019050919050565b6000819050602082019050919050565b6000819050602082019050919050565b600081519050919050565b600081519050919050565b600081519050919050565b600081519050919050565b6000602082019050919050565b6000602082019050919050565b600082825260208201905092915050565b600082825260208201905092915050565b600081905092915050565b600082825260208201905092915050565b600081905092915050565b6000613e0a82613fc8565b9150613e1583613fc8565b9250827fffffffffffffffffffffffffffffffffffffffffffffffffffffffffffffffff03821115613e4a57613e49614093565b5b828201905092915050565b6000613e6082613fe6565b9150613e6b83613fe6565b9250826bffffffffffffffffffffffff03821115613e8c57613e8b614093565b5b828201905092915050565b6000613ea282613fc8565b9150613ead83613fc8565b925082613ebd57613ebc6140c2565b5b828204905092915050565b6000613ed382613fc8565b9150613ede83613fc8565b9250817fffffffffffffffffffffffffffffffffffffffffffffffffffffffffffffffff0483118215151615613f1757613f16614093565b5b828202905092915050565b6000613f2d82613fc8565b9150613f3883613fc8565b925082821015613f4b57613f4a614093565b5b828203905092915050565b6000613f6182613fe6565b9150613f6c83613fe6565b925082821015613f7f57613f7e614093565b5b828203905092915050565b6000613f9582613fa8565b9050919050565b60008115159050919050565b600073ffffffffffffffffffffffffffffffffffffffff82169050919050565b6000819050919050565b600067ffffffffffffffff82169050919050565b60006bffffffffffffffffffffffff82169050919050565b82818337600083830152505050565b60005b8381101561402b578082015181840152602081019050614010565b8381111561403a576000848401525b50505050565b600061404b82613fc8565b91507fffffffffffffffffffffffffffffffffffffffffffffffffffffffffffffffff82141561407e5761407d614093565b5b600182019050919050565b6000819050919050565b7f4e487b7100000000000000000000000000000000000000000000000000000000600052601160045260246000fd5b7f4e487b7100000000000000000000000000000000000000000000000000000000600052601260045260246000fd5b7f4e487b7100000000000000000000000000000000000000000000000000000000600052604160045260246000fd5b6000601f19601f8301169050919050565b61413a81613f8a565b811461414557600080fd5b50565b61415181613f9c565b811461415c57600080fd5b50565b61416881613fc8565b811461417357600080fd5b50565b61417f81613fd2565b811461418a57600080fd5b50565b61419681613fe6565b81146141a157600080fd5b5056fea2646970667358221220a9c54c60c6d4b2dbddec6e2b2ad8accd0eb4f6f4eecf18a741c0225b52b6737f64736f6c63430008000033",
  "immutableReferences": {},
  "source": "// SPDX-License-Identifier: MIT\npragma solidity ^0.8.0;\n\nimport \"@openzeppelin/contracts/token/ERC20/IERC20.sol\";\nimport \"@openzeppelin/contracts/token/ERC20/utils/SafeERC20.sol\";\nimport \"@openzeppelin/contracts/token/ERC721/IERC721.sol\";\nimport \"@openzeppelin/contracts/security/ReentrancyGuard.sol\";\n\ncontract Auction is ReentrancyGuard {\n\n    // using safeErc20 for ierc20 based contract\n    using SafeERC20 for IERC20;\n\n    // constants\n    address constant ADDRESS_NULL = 0x0000000000000000000000000000000000000000;\n    uint constant MAX_ITEM_PER_AUCTION = 32;\n    uint constant MIN_HALF_AUCTION_TIME = 8;\n    // uint constant MAX_UINT96 = type(uint96).max;\n\n    // structs\n    struct NFTokenAuctionResult {\n        address contractAddress;\n        uint    tokenId;\n        address topBidder;\n        uint    standingBid;\n    }\n\n    struct Match {\n        address creatorAddress;\n        uint96 minIncrement; // percentage based\n        uint96 openBlock;\n        uint96 expiryBlock;\n        uint64 expiryExtension; // expiryBlock will be extend (+=) for expiryExtension block(s) if bid updated in range [expiryBlock - expiryExtension + 1 .. expiryBlock]\n        uint minBid; // minimum bid for all assets in this auction\n    }\n    // state\n    // matchId => Match\n    mapping(string => Match)                    public  matches;\n\n    // matchId => Result\n    mapping(string => NFTokenAuctionResult[])   public  matchResults;\n\n    // matchId => Current bid for each token in the match\n    mapping(address => mapping(bytes32 => uint)) private playerBid;\n\n    // address to balance\n    mapping(address => uint)                    private creatorBalance;\n\n    // events\n    event CreteAuctionEvent(address creatorAddress, string matchId, uint96 openBlock, uint96 expiryBlock, uint minBid, uint96 increment, address[] contracts, uint[] tokenIds);\n    event PlayerBidEvent(string matchId, address contractAddress, uint tokenId, uint bid, uint96 expiryBlock);\n    event NftWithdrawedEvent(string matchId, address contractAddress, uint tokenId, address winner);\n\n    // base erc20 token\n    address public USDC_ADDRESS;\n\n    // modifier \n    modifier validMatch(string memory matchId) {\n        require(matches[matchId].creatorAddress != ADDRESS_NULL, \"invalid match\"); \n        _;\n    }\n\n    modifier creatorOnly(string memory matchId) {\n         require(matches[matchId].creatorAddress == msg.sender, \"creator only function\"); \n        _;\n    }\n    \n    modifier matchFinished(string memory matchId) {\n        require(matches[matchId].creatorAddress != ADDRESS_NULL, \"invalid match\");\n        require(matches[matchId].expiryBlock < block.number, \"match is not finished\");\n        _;\n    }\n\n    constructor(address usdcContractAddress) {\n        USDC_ADDRESS = usdcContractAddress;\n    }\n\n    function createAuction(\n        string memory matchId, \n        uint96 openBlock, \n        uint96 expiryBlock,\n        uint64 expiryExtension,\n        uint96 minIncrement, \n        uint minBid,\n        address[] memory contracts, uint[] memory tokenIds) external nonReentrant {\n        // check if matchId is occupied\n        require(matches[matchId].creatorAddress == ADDRESS_NULL, \"matchId is occupied\");\n        \n        // check valid openBlock, expiryBlock, expiryExtensionOnBidUpdate\n        require(expiryBlock > openBlock && openBlock > block.number, \"condition expiryBlock > openBlock > current block count not satisfied\");\n        require(expiryBlock - openBlock > MIN_HALF_AUCTION_TIME * 2, \"auction time must be more than 2x MIN_HALF_AUCTION_TIME\");\n        // increment \n        // check item count\n        require(contracts.length <= MAX_ITEM_PER_AUCTION, \"item count must not exceed MAX_ITEM_PER_AUCTION\");\n        require(contracts.length == tokenIds.length, \"contracts and item ids must have the same length\");\n\n        require(minBid > 0, \"min bid should be greater than 0\");\n        require(minIncrement < 100 && minBid * minIncrement / 100 > 0, \"increment should be greater than 0\");\n\n        // deposit item to contract\n        for(uint i = 0; i < contracts.length; ++i) {\n            IERC721(contracts[i]).safeTransferFrom(msg.sender, address(this), tokenIds[i]);\n            // create slots for items\n            matchResults[matchId].push(NFTokenAuctionResult(contracts[i], tokenIds[i], ADDRESS_NULL, minBid));\n        }\n\n        // create match\n        matches[matchId] = Match(\n            msg.sender,\n            minIncrement, // percentage based\n            openBlock,\n            expiryBlock,\n            expiryExtension, // expiryBlock will be extend (+=) for expiryExtension block(s) if bid updated in range [expiryBlock - expiryExtension + 1 .. expiryBlock]\n            minBid \n        );\n\n        // emit events\n        emit CreteAuctionEvent(msg.sender, matchId, openBlock, expiryBlock, minBid, minIncrement, contracts, tokenIds);\n    }\n\n    function player_bid(string memory matchId, uint tokenIndex, uint amount) external nonReentrant validMatch(matchId) {\n\n        Match memory amatch = matches[matchId];\n        address playerAddress = msg.sender;\n        require(amatch.openBlock < block.number && block.number <= amatch.expiryBlock, \"match finished\");\n\n        // check valid token_index\n        require(tokenIndex < matchResults[matchId].length, \"token index out of range\");\n        uint standingBid = matchResults[matchId][tokenIndex].standingBid;\n        // check valid amount (> current wining, not doubled value compare to standing bid, sender someone different from winner)\n        // known issue: Auction creator should be aware of the case where stadingBid = 1 and min increment >= 1\n        require(\n            amount < 2 * standingBid && \n            amount > standingBid && \n            amount - standingBid >= amatch.minBid * amatch.minIncrement / 100, \n            \"illegal increment\"\n        );\n\n        // update the winner for that token\n        matchResults[matchId][tokenIndex].standingBid = amount;\n        matchResults[matchId][tokenIndex].topBidder = playerAddress;\n\n        // if in MIN_HALF_AUCTION_TIME blocks then extends the auction\n        if (amatch.expiryBlock - block.number < MIN_HALF_AUCTION_TIME) {\n            amatch.expiryBlock += amatch.expiryExtension;\n            matches[matchId].expiryBlock = amatch.expiryBlock;\n        }\n\n        // just transfer (amount - currentBid) of that person to contract\n        bytes32 playerBidIndex = keccak256(abi.encodePacked(matchId, tokenIndex));\n        uint transferAmount = amount - playerBid[playerAddress][playerBidIndex];\n        playerBid[playerAddress][playerBidIndex] = amount;\n\n        IERC20(USDC_ADDRESS).safeTransferFrom(msg.sender, address(this), transferAmount);\n\n        emit PlayerBidEvent(\n            matchId, \n            matchResults[matchId][tokenIndex].contractAddress, \n            matchResults[matchId][tokenIndex].tokenId, \n            amount, \n            amatch.expiryBlock\n        );\n    }\n\n    function player_withdraw_bid(string memory matchId, uint tokenIndex) external nonReentrant {\n        // check valid matchId, token_index\n        require(tokenIndex < matchResults[matchId].length, \"token index out of range\");\n        require(matchResults[matchId][tokenIndex].topBidder != msg.sender, \"top bidder cannot withdraw\");\n        \n        address playerAddress = msg.sender;\n        // TOOD: Use string, anyway this packed value is hashed by default\n        bytes32 playerBidIndex = keccak256(abi.encodePacked(matchId, tokenIndex));\n        uint amount = playerBid[playerAddress][playerBidIndex];\n        playerBid[playerAddress][playerBidIndex] = 0;\n        // transfer money\n        IERC20(USDC_ADDRESS).safeTransfer(playerAddress, amount); // auto reverts on error\n    }\n\n    function player_withdraw_nft(string memory matchId, uint tokenIndex, address recipientAddress) external matchFinished(matchId) {\n\n        require(tokenIndex < matchResults[matchId].length, \"token index out of range\");\n        address playerAddress = msg.sender;\n        NFTokenAuctionResult memory result = matchResults[matchId][tokenIndex];\n\n        // check sender is winner\n        require(result.topBidder == playerAddress, \"non top bidder cannot withdraw\");\n\n        // set top bidder to null\n        matchResults[matchId][tokenIndex].topBidder = ADDRESS_NULL;\n\n        // increase auction creator money\n        bytes32 playerBidIndex = keccak256(abi.encodePacked(matchId, tokenIndex));\n\n        // increase creator's balance\n        uint amount = playerBid[playerAddress][playerBidIndex];\n        playerBid[playerAddress][playerBidIndex] = 0;\n        creatorBalance[matches[matchId].creatorAddress] += amount;\n\n        // send nft to address\n        IERC721(result.contractAddress).safeTransferFrom(address(this), recipientAddress, result.tokenId);\n        emit NftWithdrawedEvent(matchId, result.contractAddress, result.tokenId, playerAddress);\n    }\n\n    function creator_withdraw_nft_batch(string memory matchId) external matchFinished(matchId) creatorOnly(matchId) { // in batch, maybe we will use array for only desired items\n        // check valid matchId, match finished\n        address creatorAddress = msg.sender;\n        uint minBid = matches[matchId].minBid;\n        uint _len = matchResults[matchId].length;\n        for(uint i = 0; i < _len; ++i) {\n            NFTokenAuctionResult memory result = matchResults[matchId][i];\n            if (result.topBidder == ADDRESS_NULL && result.standingBid == minBid) {\n                // set standingBid to 0\n                matchResults[matchId][i].standingBid = 0;\n                // transfer asset\n                IERC721(result.contractAddress).safeTransferFrom(address(this), creatorAddress, result.tokenId);\n            }\n        }\n    }\n    \n    function creator_withdraw_nft(string memory matchId, uint tokenIndex) external creatorOnly(matchId) {\n        uint minBid = matches[matchId].minBid;\n        NFTokenAuctionResult memory result = matchResults[matchId][tokenIndex];\n        require (result.topBidder == ADDRESS_NULL && result.standingBid == minBid, \"token is not available to withdraw\");\n        // set standingBid to 0\n        matchResults[matchId][tokenIndex].standingBid = 0;\n        // transfer asset\n        IERC721(result.contractAddress).safeTransferFrom(address(this), msg.sender, result.tokenId);\n    }\n\n    function functioncreator_withdraw_profit() external { // in batch, maybe we will use array for only desired items to prevent out of gas due to for loop\n        uint balance = creatorBalance[msg.sender];\n        require(balance > 0, \"creator balance must be greater than 0\");\n        creatorBalance[msg.sender] = 0;\n        // send token\n        IERC20(USDC_ADDRESS).safeTransfer(msg.sender, balance);\n    }\n}\n",
  "sourcePath": "/Users/tadangvinhphuc/projects/AuctionNFT/contracts/Auction.sol",
  "compiler": {
    "name": "solc",
    "version": "0.8.0+commit.c7dfd78e.Emscripten.clang"
  },
  "schemaVersion": "3.2.3",
  "updatedAt": "2021-06-15T01:33:40.174Z",
  "devdoc": {
    "kind": "dev",
    "methods": {},
    "version": 1
  },
  "userdoc": {
    "kind": "user",
    "methods": {},
    "version": 1
  }
}