{
  "contractName": "Helper",
  "abi": [
    {
      "inputs": [],
      "name": "getSum",
      "outputs": [
        {
          "internalType": "uint256",
          "name": "",
          "type": "uint256"
        }
      ],
      "stateMutability": "pure",
      "type": "function"
    }
  ],
  "bytecode": "0x608060405234801561001057600080fd5b5061015d806100206000396000f3fe608060405234801561001057600080fd5b506004361061002b5760003560e01c8063569c5f6d14610030575b600080fd5b61003861004e565b604051610045919061007d565b60405180910390f35b6000806001905060006002905080826100679190610098565b9250505090565b610077816100ee565b82525050565b6000602082019050610092600083018461006e565b92915050565b60006100a3826100ee565b91506100ae836100ee565b9250827fffffffffffffffffffffffffffffffffffffffffffffffffffffffffffffffff038211156100e3576100e26100f8565b5b828201905092915050565b6000819050919050565b7f4e487b7100000000000000000000000000000000000000000000000000000000600052601160045260246000fdfea26469706673582212208bc086b0c8c35ba9d1af9dc518c3ed597a2c938bea553f8b7444c87776eb94c764736f6c63430008000033",
  "immutableReferences": {},
  "source": "// SPDX-License-Identifier: MIT\npragma solidity ^0.8.0;\n\ncontract Helper {\n\n  function getSum() external pure returns(uint) {\n      uint a = 1;\n      uint b = 2;\n      return (a + b);\n  }\n}\n",
  "sourcePath": "/Users/tadangvinhphuc/projects/AuctionNFT/contracts/Helper.sol",
  "compiler": {
    "name": "solc",
    "version": "0.8.0+commit.c7dfd78e.Emscripten.clang"
  },
  "schemaVersion": "3.2.3",
  "updatedAt": "2021-06-15T01:33:40.189Z",
  "devdoc": {
    "kind": "dev",
    "methods": {},
    "version": 1
  },
  "userdoc": {
    "kind": "user",
    "methods": {},
    "version": 1
  }
}